:020000040000FA
:100000000C942A010C945B010C945B010C945B0131
:100010000C945B010C945B010C945B010C945B01F0
:100020000C945B010C945B010C945B010C945B01E0
:100030000C945B010C945B010C945B010C945B01D0
:100040000C945B010C945B010C945B010C945B01C0
:100050000C945B010C945B010C945B010C94DD0827
:100060000C945B010C9451090C9427090C945B01CE
:100070000C945B010C945B010C945B010C945B0190
:100080000C945B010C945B010C945B010C945B0180
:100090000C945B010C945B010C945B010C945B0170
:1000A0000C945B010C945B010C945B010C945B0160
:1000B0000C945B010C945B010C945B010C945B0150
:1000C0000C945B010C945B010C945B010C945B0140
:1000D0000C945B010C945B010C945B010C945B0130
:1000E0000C945B010C9441020C9450020C94AF01EF
:1000F0000C94A8010C94C3010C94CD010C94D5016F
:100100000C94B2020C94C7010C94AC010C94EA025A
:100110000C94B5010C94DB010C940B020C94BF0100
:100120000C948E010C94DF050C9489010C94370318
:100130000C94DF010C94D1010C94390B0C94B9018F
:100140000C94A0010C94A4020C94A40100002100C2
:10015000240027002A002D00300033000101000098
:10016000040107010A0100002200250028002B00DD
:100170002E003100340002010000050108010B01CE
:1001800005050505070508080808020202020A0A13
:100190000808040404040101010101010101030331
:1001A000030303030303040707070C0C0C0C0C0CDC
:1001B0000C0C0202020206060606060606060B0BD9
:1001C0000B0B0B0B0B0B010210202008081020401A
:1001D000102040800201020108040201010204080B
:1001E0001020408080402010080402018004020199
:1001F00080402010080402010804020101020408E2
:1002000010204080010204081020408000000A0BEA
:1002100002090C0D0E080703040100000000000095
:1002200000000000000000000000000000000000CE
:10023000000000000000000012111000000000008B
:1002400000000000000000000000000000000000AE
:100250000000390B11241FBECFEFD1E2DEBFCDBFAE
:1002600000E00CBF12E0A0E0B2E0E4E7FEE100E055
:100270000BBF02C007900D92AA3BB107D9F723E04C
:10028000AAEBB2E001C01D92AA38B207E1F711E073
:10029000CAE2D1E000E006C021970109802FFE01EB
:1002A0000E940F0DC932D10780E00807A9F70E940C
:1002B00087090C94380F0C940000382FE1E4F2E029
:1002C0008491EBEFF1E02491E5EBF1E09491992337
:1002D00009F435C0882311F181508231F8F4E82FF8
:1002E000F0E08827E958FE4F8F4F0C940F0DA801BE
:1002F000AC018901A001A4018E01AF01B501B901D2
:10030000BF01C301C701CD01D1018E01D501DB01C0
:10031000DF01809180008F7780938000E92FF0E0EB
:10032000EE0FFF1FEA59FE4FA591B4918FB7F894D5
:10033000EC91311148C020952E232C938FBF089546
:10034000809180008F7DE8CF80918000877FE4CF0F
:1003500084B58F7784BDE2CF84B58F7DFBCF80914C
:10036000B0008F778093B000D9CF8091B0008F7D9F
:10037000F9CF809190008F7780939000CFCF8091BC
:1003800090008F7DF9CF80919000877FF5CF80918D
:10039000A0008F778093A000C1CF8091A0008F7DB7
:1003A000F9CF8091A000877FF5CF809120018F77D2
:1003B00080932001B3CF809120018F7DF9CF809170
:1003C0002001877FF5CF2E2BB8CF3FB7F8948091CF
:1003D000E1029091E202A091E302B091E40226B51D
:1003E000A89B05C02F3F19F00196A11DB11D3FBF6D
:1003F000BA2FA92F982F8827BC01CD01620F711D3C
:10040000811D911D42E0660F771F881F991F4A9535
:10041000D1F708950895AF92BF92CF92DF92EF92F5
:10042000FF920F931F93CF93DF936C017B018B019E
:10043000040F151FEB015E01AE18BF08C017D107EE
:1004400059F06991D601ED91FC910190F081E02D78
:10045000C6011995892B79F7C501DF91CF911F91BD
:100460000F91FF90EF90DF90CF90BF90AF900895E5
:10047000FC01448155816081718189EE92E00C9488
:100480000B02FC01538D448D252F30E0842F90E02A
:10049000821B930B541710F0CF960895019708957F
:1004A000FC01918D828D981761F0A28DAE0FBF2F48
:1004B000B11D5D968C91928D9F5F9F73928F90E09E
:1004C00008958FEF9FEF08952FB7F8948091E5027C
:1004D0009091E602A091E702B091E8022FBF8093CD
:1004E000F1029093F202A093F302B093F40289EE2A
:1004F00092E00E94500297FF26C02FB7F894809197
:10050000E5029091E602A091E702B091E8022FBFC8
:100510004091F1025091F2026091F3027091F40265
:10052000841B950BA60BB70B4091ED025091EE0288
:100530006091EF027091F00284179507A607B70744
:10054000B0F28FEF9FEF0895FC01918D828D981787
:1005500031F0828DE80FF11D858D90E008958FEFC9
:100560009FEF0895FC01918D228D892F90E0805C92
:100570009F4F821B91098F739927089589EE92E00E
:100580000E94B20221E0892B09F420E0822F089515
:10059000FC01A48DA80FB92FB11DA35ABF4F2C91F8
:1005A000848D90E001968F739927848FA689B789EF
:1005B0002C93A089B1898C91837080648C93938DE6
:1005C000848D981306C00288F389E02D80818F7D89
:1005D00080830895EF92FF920F931F93CF93DF9341
:1005E000EC0181E0888F9B8D8C8D98131AC0E8896F
:1005F000F989808185FF15C09FB7F894EE89FF893E
:100600006083E889F98980818370806480839FBFDB
:1006100081E090E0DF91CF911F910F91FF90EF90DB
:100620000895F62E0B8D10E00F5F1F4F0F731127EB
:10063000E02E8C8D8E110CC00FB607FCFACFE88926
:10064000F989808185FFF5CFCE010E94C802F1CFE4
:10065000EB8DEC0FFD2FF11DE35AFF4FF0829FB79A
:10066000F8940B8FEA89FB8980818062CFCFCF938A
:10067000DF93EC01888D8823B9F0AA89BB89E889CA
:10068000F9898C9185FD03C0808186FD0DC00FB670
:1006900007FCF7CF8C9185FFF2CF808185FFEDCFEE
:1006A000CE010E94C802E9CFDF91CF91089580E08A
:1006B00090E0892B29F00E94BE0281110E94000067
:1006C00080E090E0892B49F080E090E0892B29F0D0
:1006D0000E94000081110E94000080E090E0892BC0
:1006E00049F080E090E0892B29F00E940000811100
:1006F0000E94000080E090E0892B49F080E090E0CB
:10070000892B29F00E94000081110C9400000895AB
:10071000DF92EF92FF920F931F93CF93DF93DC0151
:1007200014962D913C916217730750F08FEF9FEF55
:10073000DF91CF911F910F91FF90EF90DF9008957F
:100740008C01EB012196DC01ED91FC911197EC0FEE
:10075000FD1FD0801082ED90FC906EE270E0C7012A
:100760000E942D0FCE0DDF1DD8820097F9F2F801FF
:1007700020813181821B930BDBCFFC010190002093
:10078000E9F73197AF01481B590BBC0189EE92E0A4
:100790000C940B020F931F93CF93DF938C01EB010B
:1007A000FC01808191810097E1F068817981611578
:1007B0007105A9F0428153812C813D814217530775
:1007C00070F00E94260F8C819D81F80195838483AF
:1007D0001D821C82DF91CF911F910F9108950E947D
:1007E000B30D88819981F801918380838A819B81EF
:1007F000938382838C819D8195838483198218825F
:100800001B821A82E5CFCF93DF93EC018881998117
:10081000009711F00E94B30D198218821D821C826C
:100820001B821A82DF91CF910895FC018081918112
:10083000009711F00C94B30D08950F931F93CF936D
:10084000DF93EC0188819981009759F02A813B81DF
:100850002617370730F081E0DF91CF911F910F917C
:1008600008958B016F5F7F4F0E943C0E009759F0F7
:10087000998388831B830A832C813D81232B59F71D
:10088000FC011082E8CF80E0E7CFEF92FF920F9358
:100890001F93CF93DF936115710541F480E0DF91E1
:1008A000CF911F910F91FF90EF9008954115510541
:1008B000B1F07B01EC010C811D81040F151FB80103
:1008C0000E941D04882351F3288139818C819D81E8
:1008D000B701820F931F0E94260F1D830C8381E0B6
:1008E000DECFCF93DF93EC01FB0101900020E9F70D
:1008F0003197AF01461B570B0E944504811103C07D
:10090000CE010E940304CE01DF91CF910895EF92B2
:10091000FF920F931F93CF93DF93EC017B018A012A
:10092000BA010E941D0481110BC0CE010E94030474
:10093000CE01DF91CF911F910F91FF90EF9008951D
:100940001D830C83B701888199810E94260FF0CF07
:10095000CF93DF93EC01FB018617970749F0608185
:1009600071816115710541F0448155810E948704B0
:10097000CE01DF91CF9108950E940304F9CFFC01CD
:10098000118210821382128215821482FB0101905F
:100990000020E9F73197AF01461B570B0C948704F1
:1009A0000F931F93CF93DF931F921F92CDB7DEB7A4
:1009B0008C0168EB72E00E94BF040E94640297FD04
:1009C0000EC08A30910559F089831A8241E050E0C7
:1009D000BE016F5F7F4FC8010E944504EECFC80182
:1009E0000F900F90DF91CF911F910F910895AF92CB
:1009F000BF92CF92DF92EF92FF920F931F93CF930C
:100A0000DF937C016B015A0189012417350720F41B
:100A10008B2D5901042F182F68EB72E0C7010E943B
:100A2000BF04D6011496CD91DC91AC16BD0620F51D
:100A30000C171D0708F4E801D601ED91FC91119700
:100A4000EC0FFD1F108110826D917C916A0D7B1D52
:100A500061157105E9F0FB0101900020E9F731977C
:100A6000AF01461B570BC7010E948704F601808126
:100A70009181C80FD91F1883C701DF91CF911F91B2
:100A80000F91FF90EF90DF90CF90BF90AF900895BF
:100A9000C7010E940304EACF8F929F92AF92BF9248
:100AA000CF92DF92EF92FF920F931F93CF93DF933A
:100AB000CDB7DEB764970FB6F894DEBF0FBECDBFDB
:100AC0006C017B0149015A01FB0164817581615010
:100AD0007109C7010E948803F70124813581AC01A7
:100AE0004F5F5F4FB7018E010F5F1F4FC8010E941C
:100AF000F704B801C7010E94CA03C8010E94150487
:100B000062E272E0CE010F960E94BF04F7014481B9
:100B1000558160817181CE010F960E94450481113B
:100B200004C0CE010F960E94030464E272E0CE017D
:100B30000F960E94710462E272E00E9471047C01CF
:100B40002AE0A801C501B4010E943C0CF801019003
:100B50000020E9F73197AF01401B510BB801C701E5
:100B60000E944504811103C0C7010E94030462E290
:100B700072E0C7010E947104F60111821082138293
:100B8000128215821482BC01C6010E94A804CE0103
:100B90000F960E941504C60164960FB6F894DEBF46
:100BA0000FBECDBFDF91CF911F910F91FF90EF90BE
:100BB000DF90CF90BF90AF909F908F9008952F922D
:100BC0003F924F925F926F927F928F929F92AF92DD
:100BD000BF92CF92DF92EF92FF920F931F93CF932A
:100BE000DF93CDB7DEB7C05BD1090FB6F894DEBF97
:100BF0000FBECDBFC355DF4F99838883CD5AD040F8
:100C000086EC90E08C0F9D1FCF57DF4F9983888330
:100C1000C158D040CE0188539F4FCD57DF4F9983A5
:100C20008883C358D0400296CB57DF4F998388837F
:100C3000C558D0400296C957DF4F99838883C7585B
:100C4000D0400296C757DF4F99838883C958D04058
:100C50000296C557DF4F99838883CB58D0400296C0
:100C6000C357DF4F99838883CD58D0400296C15730
:100C7000DF4F99838883CF58D0400296CF56DF4FFD
:100C800099838883C159D0400296CD56DF4F99830E
:100C90008883C359D0400296CB56DF4F998388830F
:100CA000C559D0400296C956DF4F99838883C759EA
:100CB000D0400296C756DF4F99838883C959D040E8
:100CC0000296C556DF4F99838883CB59D040029650
:100CD000C356DF4F99838883CD59D0400296C156C1
:100CE000DF4F99838883CF59D04067E272E0DE01FD
:100CF00011961D01CD010E94BF046EE272E0CE018B
:100D000007960E94BF0466E372E0CE010D960E9432
:100D1000BF0461E472E0CE0143960E94BF0468E420
:100D200072E0CE0149960E94BF0465E572E0CE01F3
:100D30004F960E94BF046AE572E0CE0185960E943C
:100D4000BF046FE572E0CE018B960E94BF046AE695
:100D500072E0CE01C1960E94BF0465E772E0CE0149
:100D6000C7960E94BF046BE772E0CE01CD960E9449
:100D7000BF0460E872E0CE018D5B9F4F0E94BF040C
:100D800066E872E0CE01875B9F4F0E94BF046DE86A
:100D900072E0CE01815B9F4F0E94BF0463E972E065
:100DA000CE018B5A9F4F0E94BF0469E972E0CE01C9
:100DB000855A9F4F0E94BF048FE992E00E94BD03B5
:100DC0008E010F571F4F6101F801B096C155DF4FDB
:100DD000F983E883CF5AD040412C512C32017E0157
:100DE000F1E6EF0EF11CC155DF4F88819981CF5A92
:100DF000D0408017910709F4D3C0D801ED91FD913F
:100E00008D0180809180C955DF4F19821882C75AA1
:100E1000D040C755DF4F19821882C95AD040C555F6
:100E2000DF4F19821882CB5AD040B601CE018955C6
:100E30009F4F0E94A804C555DF4F68817981CB5A26
:100E4000D04061507109CE0189559F4F0E9488039F
:100E5000C555DF4F28813981CB5AD040AC014F5F57
:100E60005F4FBE0169557F4FC7010E94F704B7016C
:100E7000CE0189559F4F0E94CA03C7010E941504E5
:100E800062E272E0CE018F559F4F0E94BF04C555AC
:100E9000DF4F48815981CB5AD040C955DF4F688117
:100EA0007981C75AD040CE018F559F4F0E9445048B
:100EB000811105C0CE018F559F4F0E94030464E24B
:100EC00072E0CE018F559F4F0E94710462E272E082
:100ED0000E9471045C014AE0B701C4010E94310C18
:100EE000F70101900020E9F73197AF014E195F0932
:100EF000B701C5010E944504811103C0C5010E94CC
:100F0000030462E272E0C5010E947104F7011182DC
:100F100010821382128215821482BC01C7010E94C2
:100F2000A804CE018F559F4F0E941504CF55DF4F67
:100F300019821882C15AD040CD55DF4F19821882CC
:100F4000C35AD040CB55DF4F19821882C55AD040C2
:100F5000B701CE018F559F4F0E94A80461EA72E04D
:100F6000CE018F559F4F0E9471040E943802CE011E
:100F70008F559F4F0E941504C7010E941504CE0192
:100F800089559F4F0E941504C401990CAA0BBB0BF5
:100F9000480E591E6A1E7B1EF6E0CF0ED11C23CFD1
:100FA000C090BA02D090BB02E090BC02F090BD02AB
:100FB00064EA72E0CE018F599F4F0E94BF04A701DF
:100FC0009601BE016F597F4FCE018F559F4F0E94F2
:100FD0004C05CE018F559F4F0E943802CE018F5590
:100FE0009F4F0E941504CE018F599F4F0E941504F8
:100FF00089EA92E00E94BD036BEA72E0CE018F594C
:101000009F4F0E94BF04A3019201BE016F597F4F01
:10101000CE018F559F4F0E944C05CE018F559F4F9B
:101020000E943802CE018F559F4F0E941504CE01B9
:101030008F599F4F0E94150484EB92E00E94BD03DC
:1010400086EB92E00E94BD0380E2FE01EA53FF4F6F
:10105000DE01AF59BF4F01900D928A95E1F7CE01A5
:1010600089559F4F0E94D00422E030E050E040E0DC
:10107000BE0169557F4FCE018F559F4F0E94F704E7
:10108000CF55DF4F88819981C15AD040C12CD12CD6
:101090007601009719F00E940A0C6B01CE018F5562
:1010A0009F4F0E94150487E0C816D104A9F195E16D
:1010B000C916D10409F456C081E0A6E0CA16D104CD
:1010C00009F44DC0CE0189559F4F0E9415048E0131
:1010D0000F591F4F06501109C8010E941504201610
:1010E0003106C1F7C055DF4F0FB6F894DEBF0FBE13
:1010F000CDBFDF91CF911F910F91FF90EF90DF90C7
:10110000CF90BF90AF909F908F907F906F905F90A7
:101110004F903F902F900895CE018F559F4F0E9482
:10112000D004BE016F557F4FCE0189559F4F0E945D
:10113000CA03CE018F559F4F0E941504C955DF4F3A
:1011400088819981C75AD0400E940A0C6093BA02E4
:101150007093BB028093BC029093BD0280E00E941A
:101160005D01B0CFC355DF4FE881F981CD5AD04042
:10117000208131818DB79EB780970FB6F8949EBFBE
:101180000FBE8DBFADB7BEB7119680E2FE01EF591D
:10119000FF4F01900D928A95E1F7D901ED91FC91F5
:1011A000C355DF4F88819981CD5AD04019950FB62C
:1011B000F894DEBF0FBECDBF85CF1F920F920FB642
:1011C0000F9211242F933F938F939F93AF93BF93CD
:1011D0008091E5029091E602A091E702B091E802C9
:1011E0003091E00223E0230F2D3758F50196A11D21
:1011F000B11D2093E0028093E5029093E602A09354
:10120000E702B093E8028091E1029091E202A0919E
:10121000E302B091E4020196A11DB11D8093E102A9
:101220009093E202A093E302B093E402BF91AF91E6
:101230009F918F913F912F910F900FBE0F901F9014
:10124000189526E8230F0296A11DB11DD2CF1F923B
:101250000F920FB60F9211240BB60F922F933F935C
:101260004F935F936F937F938F939F93AF93BF93AE
:10127000EF93FF9389EE92E00E94C802FF91EF91F5
:10128000BF91AF919F918F917F916F915F914F919E
:101290003F912F910F900BBE0F900FBE0F901F909C
:1012A00018951F920F920FB60F9211240BB60F9242
:1012B0002F938F939F93EF93FF93E091F902F09117
:1012C000FA028081E091FF02F091000382FD1DC0CF
:1012D0009081809102038F5F8F73209103038217A7
:1012E00041F0E0910203F0E0E751FD4F958F8093CC
:1012F0000203FF91EF919F918F912F910F900BBE61
:101300000F900FBE0F901F9018958081F2CF7894A8
:1013100084B5826084BD84B5816084BD85B58260FA
:1013200085BD85B5816085BD80916E0081608093AB
:101330006E00109281008091810082608093810014
:101340008091810081608093810080918000816024
:10135000809380008091B10084608093B10080917F
:10136000B00081608093B000809191008260809392
:101370009100809191008160809391008091900014
:101380008160809390008091A10082608093A10091
:101390008091A10081608093A1008091A000816074
:1013A0008093A0008091210182608093210180912F
:1013B00021018160809321018091200181608093CF
:1013C000200180917A00846080937A0080917A0075
:1013D000826080937A0080917A00816080937A00A5
:1013E00080917A00806880937A001092C100E09129
:1013F000F902F091FA0282E08083E091F902F09123
:10140000FA021082E091F502F091F6021082E0916A
:10141000F702F091F80280E1808310920103E091DD
:10142000FD02F091FE0286E08083E091FB02F091E4
:10143000FC02808180618083E091FB02F091FC02DC
:10144000808188608083E091FB02F091FC028081C2
:1014500080688083E091FB02F091FC0280818F7DA7
:10146000808382E090E00E94170D20E232E0FC01D0
:10147000318320839093DF028093DE0288E893E13A
:101480009093BF028093BE020E94B20B44EFC42E21
:10149000DD24D394E12CF12CA70196010E94AC0C21
:1014A0007093C1026093C0020E94B20BA701960123
:1014B0000E94AC0C7093C3026093C2020E94B20BF4
:1014C000A70196010E94AC0C7093C5026093C40200
:1014D0000E94B20BA70196010E94AC0C7093C70248
:1014E0006093C6020E94B20BA70196010E94AC0C49
:1014F0007093C9026093C8020E94B20BA7019601C3
:101500000E94AC0C7093CB026093CA020E94B20B93
:10151000A70196010E94AC0C7093CD026093CC029F
:101520000E94B20BA70196010E94AC0C7093CF02EF
:101530006093CE020E94B20BA70196010E94AC0CF0
:101540007093D1026093D0020E94B20BA701960162
:101550000E94AC0C7093D3026093D2020E94B20B33
:10156000A70196010E94AC0C7093D5026093D4023F
:101570000E94B20BA70196010E94AC0C7093D70297
:101580006093D6021092D9021092D8021092DB0218
:101590001092DA021092DD021092DC02EBEFF1E021
:1015A0002491E5EBF1E08491882399F090E0880F95
:1015B000991FFC01E45BFE4FA591B491FC01EA592F
:1015C000FE4F859194918FB7F894EC91E22BEC93B8
:1015D0008FBF80E00E945D018091DE029091DF026A
:1015E000FC01C081D1812DB73EB7205231090FB621
:1015F000F8943EBF0FBE2DBFADB7BEB7119620E227
:10160000EEEBF2E001900D922A95E1F7E881F98185
:1016100019958DB79EB780960FB6F8949EBF0FBEF2
:101620008DBF0E94E5014B015C0188EEC82E83E06E
:10163000D82EE12CF12C0E94E501681979098A095C
:101640009B09683E734081059105A8F391E0C91A92
:10165000D108E108F108E8EE8E0EE3E09E1EA11C21
:10166000B11CC114D104E104F10429F70E9457030D
:10167000B3CFE9EEF2E01382128288EE93E0A0E0AD
:10168000B0E084839583A683B7838EE092E0918354
:10169000808385EC90E09587848784EC90E0978741
:1016A000868780EC90E0918B808B81EC90E0938B2F
:1016B000828B82EC90E0958B848B86EC90E0978B0C
:1016C000868B118E128E138E148E08958F929F9298
:1016D000AF92BF92CF92DF92EF92FF92CF93DF93C0
:1016E000EC01688179818A819B8161157105810591
:1016F000910521F464E279ED8BE597E02DE133EF7C
:1017000041E050E00E94AC0C49015A019B01AC0140
:10171000A7EAB1E40E94CB0C6B017C01ACEEB4EF04
:10172000A50194010E94D90CC60ED71EE81EF91E11
:10173000F7FE06C081E0C81AD108E10880E8F80A7F
:10174000C882D982EA82FB82C701B6019F77DF9106
:10175000CF91FF90EF90DF90CF90BF90AF909F9090
:101760008F9008958F929F92AF92BF92CF92DF9207
:10177000EF92FF926091000270910102809102024B
:1017800090910302611571058105910521F464E2D0
:1017900079ED8BE597E02DE133EF41E050E00E94D9
:1017A000AC0C49015A019B01AC01A7EAB1E40E94CB
:1017B000CB0C6B017C01ACEEB4EFA50194010E944F
:1017C000D90CC60ED71EE81EF91EF7FE06C081E032
:1017D000C81AD108E10880E8F80AC0920002D09245
:1017E0000102E0920202F0920302C701B6019F7764
:1017F000FF90EF90DF90CF90BF90AF909F908F9031
:101800000895609300027093010280930202909306
:10181000030208951F93FC0199278827BC01E894CF
:1018200011911032E9F3193010F01E30C8F31B3259
:1018300051F01D3249F4689406C00E944B0C610FB0
:10184000711D811D911D119110531A30B0F33EF49A
:1018500090958095709561957F4F8F4F9F4F1F9109
:101860000895BB274A3031F4992322F4BDE29095C4
:1018700081959F4F0C94830CBB272A3051F49923F8
:1018800042F4BDE290958095709561957F4F8F4FA2
:101890009F4F0C94610C592F482F372F262F660F1E
:1018A000771F881F991F660F771F881F991F620F68
:1018B000731F841F951F660F771F881F991F089538
:1018C000BB27FA01A62F6217710581059105330B1D
:1018D00030FB66F0AA27660F771F881F991FAA1F83
:1018E000A21710F0A21B63953850A9F7A05DAA3388
:1018F00008F0A95DA19336F7B111B1931082CA0126
:101900000C949C0CBB27FB015527AA27880F991F15
:10191000AA1FA41710F0A41B83955051B9F7A05D1E
:10192000AA3308F0A95DA193009779F7B111B1939B
:101930001192CB010C949C0CDC01FC01672F71917E
:101940007723E1F7329704C07C916D9370836291A5
:10195000AE17BF07C8F30895052E97FB1EF4009439
:101960000E94C30C57FD07D00E94DE0C07FC03D079
:101970004EF40C94C30C50954095309521953F4FF3
:101980004F4F5F4F089590958095709561957F4F6B
:101990008F4F9F4F08950E94000DA59F900DB49FFB
:1019A000900DA49F800D911D11240895B7FF0C94F4
:1019B000CB0C0E94CB0C821B930B0895A1E21A2E34
:1019C000AA1BBB1BFD010DC0AA1FBB1FEE1FFF1FE3
:1019D000A217B307E407F50720F0A21BB30BE40B33
:1019E000F50B661F771F881F991F1A9469F760957A
:1019F0007095809590959B01AC01BD01CF01089534
:101A0000A29FB001B39FC001A39F700D811D11243F
:101A1000911DB29F700D811D1124911D0895EE0F2F
:101A2000FF1F881F8BBF0790F691E02D19940F932D
:101A30001F93CF93DF938230910510F482E090E002
:101A4000E0918803F091890330E020E0B0E0A0E06D
:101A5000309799F42115310509F44AC0281B390B38
:101A600024303105D8F58A819B816115710589F192
:101A7000FB0193838283FE0111C040815181028169
:101A8000138148175907E0F04817590799F4109740
:101A900061F012960C93129713961C933296CF0115
:101AA000DF91CF911F910F910895009388031093B8
:101AB0008903F4CF2115310551F04217530738F04F
:101AC000A901DB019A01BD01DF01F801C1CFEF01DE
:101AD000F9CF9093890380938803CDCFFE01E20F65
:101AE000F31F819391932250310939832883D7CFF3
:101AF0002091860330918703232B41F42091060225
:101B000030910702309387032093860320910402CB
:101B1000309105022115310541F42DB73EB74091B2
:101B2000080250910902241B350BE0918603F091C5
:101B30008703E217F307A0F42E1B3F0B2817390782
:101B400078F0AC014E5F5F4F2417350748F04E0F19
:101B50005F1F5093870340938603819391939FCF98
:101B6000F0E0E0E09CCFCF93DF930097E9F0FC0139
:101B7000329713821282A0918803B0918903ED01FC
:101B800030E020E01097A1F420813181820F931F73
:101B900020918603309187032817390709F061C027
:101BA000F0938703E0938603DF91CF910895EA01D4
:101BB000CE17DF07E8F54A815B819E01411551058B
:101BC000B1F7E901FB83EA8349915991C40FD51F0D
:101BD000EC17FD0761F4808191810296840F951FB7
:101BE000E90199838883828193819B838A83F0E0D2
:101BF000E0E012968D919C9113970097B9F52D9185
:101C00003C911197CD010296820F931F209186037C
:101C1000309187032817390739F6309751F510921C
:101C2000890310928803B0938703A0938603BCCFE7
:101C3000D383C28340815181840F951FC817D90770
:101C400061F44E5F5F4F88819981480F591F51831E
:101C500040838A819B81938382832115310509F01A
:101C6000B0CFF0938903E09388039ECFFD01DC01A0
:101C7000C0CF13821282D7CF4F925F926F927F9222
:101C80008F929F92AF92BF92CF92DF92EF92FF928C
:101C90000F931F93CF93DF938C01009799F4CB019F
:101CA000DF91CF911F910F91FF90EF90DF90CF9038
:101CB000BF90AF909F908F907F906F905F904F906C
:101CC0000C94170DFC01E60FF71F9C0122503109FF
:101CD000E217F30708F4AEC0D901CD91DC9111975A
:101CE000C617D70720F1C530D10578F0CE0104978B
:101CF0008617970750F0C61BD70B2297C193D19335
:101D00006D937C93CF010E94B30DC801DF91CF91F9
:101D10001F910F91FF90EF90DF90CF90BF90AF9009
:101D20009F908F907F906F905F904F9008955B0190
:101D3000AC1ABD0A4C018C0E9D1EA0918803B09177
:101D40008903512C412CF12CE12C109731F5809115
:101D50008603909187038815990509F05CC04616A3
:101D6000570608F058C08091040290910502009730
:101D700041F48DB79EB74091080250910902841B2F
:101D8000950BE817F90708F055C0F0938703E09327
:101D90008603F90171836083B8CF8D919C9111976F
:101DA00012966C90129713967C901397A815B9050C
:101DB00059F56C0142E0C40ED11CCA14DB0420F1B9
:101DC000AC014A195B09DA011296159780F062821C
:101DD000738251834083D9016D937C93E114F104A4
:101DE00071F0D7011396FC93EE9312978ECF229643
:101DF0008C0F9D1FF90191838083F301EFCFF09346
:101E00008903E093880381CF4816590608F42C0112
:101E10007D01D3019ACFCB010E94170D7C01009761
:101E200049F0AE01B8010E941D0FC8010E94B30D18
:101E300087016BCF10E000E068CFFB01DC0102C03E
:101E400001900D9241505040D8F70895FB01DC01FC
:101E500001900D920020E1F70895FC0181E090E0EF
:101E60000190061609F4CF010020D1F701970895DB
:101E7000F894FFCF0100000000008A0380000000FA
:101E80000000EA020B0241023703B2025002A40230
:101E900000000000DF052200223A00642E74656D08
:101EA0007000642E6C6967687400642E6C6F7564D2
:101EB0006E65737300642E77696E6400642E7744D8
:101EC0006972656374696F6E00642E757600642EA6
:101ED0006F3200642E68756D696469747900642ED0
:101EE000707265737375726500642E636F3200647F
:101EF0002E636F00642E6E6F3200642E736D6F67F9
:101F000000642E70683100642E70683200642E7098
:101F10006833007B002C200074696D65002C006321
:0E1F20006865636B73756D007D000D0A00002F
:020000040003F7
:10E000000D9489F10D94B2F10D94B2F10D94B2F129
:10E010000D94B2F10D94B2F10D94B2F10D94B2F1F0
:10E020000D94B2F10D94B2F10D94B2F10D94B2F1E0
:10E030000D94B2F10D94B2F10D94B2F10D94B2F1D0
:10E040000D94B2F10D94B2F10D94B2F10D94B2F1C0
:10E050000D94B2F10D94B2F10D94B2F10D94B2F1B0
:10E060000D94B2F10D94B2F10D94B2F10D94B2F1A0
:10E070000D94B2F10D94B2F10D94B2F10D94B2F190
:10E080000D94B2F10D94B2F10D94B2F10D94B2F180
:10E090000D94B2F10D94B2F10D94B2F10D94B2F170
:10E0A0000D94B2F10D94B2F10D94B2F10D94B2F160
:10E0B0000D94B2F10D94B2F10D94B2F10D94B2F150
:10E0C0000D94B2F10D94B2F10D94B2F10D94B2F140
:10E0D0000D94B2F10D94B2F10D94B2F10D94B2F130
:10E0E0000D94B2F141546D656761323536300041AF
:10E0F000726475696E6F206578706C6F72657220DE
:10E1000073746B3530305632206279204D4C530099
:10E11000426F6F746C6F616465723E004875683F52
:10E1200000436F6D70696C6564206F6E203D200048
:10E130004350552054797065202020203D20005FF9
:10E140005F4156525F415243485F5F3D2000415658
:10E1500052204C696243205665723D20004743437C
:10E160002056657273696F6E203D20004350552024
:10E1700049442020202020203D20004C6F7720663D
:10E18000757365202020203D20004869676820665F
:10E190007573652020203D200045787420667573D6
:10E1A00065202020203D20004C6F636B2066757336
:10E1B000652020203D20004D617220203720323024
:10E1C000313300312E362E3800342E332E350056A2
:10E1D00023202020414444522020206F7020636F70
:10E1E00064652020202020696E73747275637469E1
:10E1F0006F6E2061646472202020496E74657272B3
:10E20000757074006E6F20766563746F7200726A49
:10E210006D702020006A6D70200057686174207056
:10E220006F72743A00506F7274206E6F7420737541
:10E2300070706F72746564004D7573742062652030
:10E2400061206C6574746572002000577269747483
:10E25000696E672045450052656164696E672045B7
:10E26000450045452065727220636E743D00504F35
:10E27000525400303D5A65726F2061646472003FF1
:10E280003D43505520737461747300403D454550C3
:10E29000524F4D207465737400423D426C696E6B41
:10E2A000204C454400453D44756D70204545505215
:10E2B0004F4D00463D44756D7020464C415348001B
:10E2C000483D48656C70004C3D4C69737420492F83
:10E2D0004F20506F72747300513D51756974005234
:10E2E0003D44756D702052414D00563D73686F7707
:10E2F00020696E7465727275707420566563746FF0
:10E30000727300593D506F727420626C696E6B00BD
:10E310002A0011241FBECFEFD1E2DEBFCDBF01E046
:10E320000CBF12E0A0E0B2E0EEE1FDEF03E00BBFB6
:10E3300002C007900D92A030B107D9F712E0A0E01B
:10E34000B2E001C01D92AE30B107E1F70F9460F367
:10E350000D948DFE01E20EBF0FEF0DBF11241FBE05
:10E360000D9460F30D9400F020E030E040ED57E0B4
:10E3700005C0FA013197F1F72F5F3F4F2817390792
:10E38000C0F308959C01260F311DC901A0E0B0E043
:10E390002F5F3F4FABBFFC018791882361F08093D3
:10E3A000C6008091C00086FFFCCF8091C0008064D1
:10E3B0008093C000EACF08958DE08093C6008091DD
:10E3C000C00086FFFCCF8091C00080648093C000B5
:10E3D0008AE08093C6008091C00086FFFCCF8091C8
:10E3E000C00080648093C00008950F94C2F10F9420
:10E3F000DCF10895FC019081992359F09093C600B7
:10E400008091C00086FFFCCF8091C0008064809323
:10E41000C0003196992379F70895282F982F929567
:10E420009F70892F805D8A3308F0895F8093C600D2
:10E430008091C00086FFFCCF8091C00080648093F3
:10E44000C000822F8F70982F905D9A3308F0995FEB
:10E450009093C6008091C00086FFFCCF8091C000E1
:10E4600080648093C00008959C01FB01853691056E
:10E470001CF46330710594F0C90164E670E00F94F8
:10E480002EFE605D7F4F6093C6008091C00086FFC6
:10E49000FCCF8091C00080648093C0002B30310598
:10E4A00014F43297B4F0C90164E670E00F942EFEC4
:10E4B0006AE070E00F942EFE605D7F4F6093C600AF
:10E4C0008091C00086FFFCCF8091C0008064809363
:10E4D000C000C9016AE070E00F942EFEC0968093E0
:10E4E000C6008091C00086FFFCCF8091C000806490
:10E4F0008093C00008951F93182F8EE692EE60E07F
:10E500000F94C2F11093C6008091C00086FFFCCF2B
:10E510008091C00080648093C0000F94DCF11F9153
:10E5200008952F923F924F925F926F927F928F92B7
:10E530009F92AF92BF92CF92DF92EF92FF920F9392
:10E540001F93DF93CF93CDB7DEB762970FB6F894E2
:10E55000DEBF0FBECDBF382E622ECA01DB015C01CB
:10E560006D01772420E2222E2E010894411C511CBB
:10E570008BC081E0A81680E0B80681E0C80680E084
:10E58000D80628F0C601AA27BB270F940DF2BB2797
:10E59000AD2D9C2D8B2D0F940DF28A2D0F940DF225
:10E5A0002092C6008091C00086FFFCCF8091C00001
:10E5B00080648093C0009DE29093C6008091C0006B
:10E5C00086FFFCCF8091C00080648093C0002092C1
:10E5D000C6008091C00086FFFCCF8091C00080649F
:10E5E0008093C00019828601750188249924A1E0D6
:10E5F0003A1651F03A1620F0B2E03B1661F409C029
:10E600000BBFF701779007C0C7010F9477FE782EF4
:10E6100002C0F7017080872D0F940DF22092C60082
:10E620008091C00086FFFCCF8091C0008064809301
:10E63000C000872D8052F401EF70F0708F3520F408
:10E64000E40DF51D708204C0E40DF51D8EE280839B
:10E650000894E11CF11C011D111D0894811C911CE2
:10E6600090E18916910409F0C2CF80E190E0A0E02A
:10E67000B0E0A80EB91ECA1EDB1E198AC2010F9493
:10E68000FAF10F94DCF16A94662009F072CF629679
:10E690000FB6F894DEBF0FBECDBFCF91DF911F91B3
:10E6A0000F91FF90EF90DF90CF90BF90AF909F9031
:10E6B0008F907F906F905F904F903F902F90089534
:10E6C0002F923F924F925F926F927F928F929F9282
:10E6D000AF92BF92CF92DF92EF92FF920F931F9370
:10E6E000DF93CF93CDB7DEB7CD53D1400FB6F894BB
:10E6F000DEBF0FBECDBF01E20EBF0FEF0DBF94B75F
:10E70000F894A89514BE80916000886180936000A1
:10E7100010926000789493FF05C0E0910002F091A0
:10E7200001021995279A2F9A8091C00082608093E8
:10E73000C00080E18093C40088E18093C1000000A4
:10E74000EE24FF24870144E0A42EB12CCC24DD2448
:10E7500024C0C5010197F1F70894E11CF11C011DCB
:10E76000111D21E2E2162EE4F20620E0020720E06D
:10E77000120718F031E0C32ED12CC801B70127ECE5
:10E780003BE140E050E00F9441FE611571058105C9
:10E79000910519F485B1805885B98091C00087FD35
:10E7A00003C0C114D104A9F2A6014F5F5F4FC25E3E
:10E7B000DE4F59834883CE51D140C25EDE4F8881FF
:10E7C0009981CE51D140019711F00D9410FEC05D9A
:10E7D000DE4F19821882C053D14060E0C15DDE4F28
:10E7E0001882CF52D14088249924C35DDE4F19820C
:10E7F0001882CD52D140C05EDE4F188219821A8233
:10E800001B82C052D140CE5CDE4F188219821A8220
:10E810001B82C253D140EE24FF2487010BBFF701B6
:10E8200007911691C45CDE4F19830883CC53D14005
:10E830000D940BFEC25EDE4F28813981CE51D1404E
:10E840002130310509F52091C600C25EDE4F1982E4
:10E850001882CE51D14022C02F5F3F4F4F4F5F4FA4
:10E86000213082E138078AE7480780E0580780F0C6
:10E87000C45CDE4FE881F981CC53D140EF5FFF4F9C
:10E8800019F0EE27FF27099420E030E040E050E047
:10E890008091C00087FFE0CF2091C600C35DDE4FAE
:10E8A00048815981CD52D1404F5F5F4FC35DDE4FEC
:10E8B00059834883CD52D140213209F063C64A3092
:10E8C000510508F05FC60894811C911C53E0851621
:10E8D000910409F059C600E010E018C081E280936D
:10E8E000C6008091C00086FFFCCF8091C00080648C
:10E8F0008093C0002F5F3F4F2931310579F70F9486
:10E90000DCF10F5F1F4F0530110519F020E030E0FA
:10E91000E5CF10920A0210920B0210920C02109294
:10E920000D02109206021092070210920802109235
:10E930000902109202021092030210920402109235
:10E9400005028FEE90EE60E00F94F5F180E191EE1C
:10E9500060E00F94C2F18091C00087FFFCCF9091DE
:10E96000C600903608F09F759032B8F09093C600BC
:10E970008091C00086FFFCCF8091C00080648093AE
:10E98000C000A0E2A093C6008091C00086FFFCCF2B
:10E990008091C00080648093C000983409F4D7C18E
:10E9A0009934B8F4923409F459C1933458F490333B
:10E9B00019F1903308F4E3C59F33A1F1903409F0C5
:10E9C000DEC5BDC0953409F470C1963409F0D7C5D1
:10E9D00098C1923509F42BC2933538F49C3409F46C
:10E9E000F5C1913509F0CBC518C2963509F445C279
:10E9F000993509F0C4C567C483E792EE62E00F94CD
:10EA0000F5F110920602109207021092080210927D
:10EA1000090210920A0210920B0210920C0210923C
:10EA20000D0213C18FE792EE62E00F94F5F18FEEC5
:10EA300090EE60E00F94F5F181E291EE60E00F94CA
:10EA4000C2F187EB91EE60E00F94F5F180E391EE77
:10EA500060E00F94C2F184EE90EE60E00F94F5F167
:10EA60008FE391EE60E00F94C2F186E090E061E008
:10EA700070E00F9434F20F94DCF18DE591EE60E0DC
:10EA80000F94C2F189EC91EE60E00F94F5F18EE401
:10EA900091EE60E00F94C2F183EC91EE60E00F9490
:10EAA000F5F18CE691EE60E00F94C2F18EE10F94E7
:10EAB0000DF288E90F940DF281E00F940DF20F949E
:10EAC000DCF18BE791EE60E00F94C2F119E0E0E039
:10EAD000F0E010935700E4918E2F0F940DF20F94F5
:10EAE000DCF18AE891EE60E00F94C2F1E3E0F0E03F
:10EAF00010935700E4918E2F0F940DF20F94DCF1D8
:10EB000089E991EE60E00F94C2F1E2E0F0E0109349
:10EB10005700E4918E2F0F940DF20F94DCF188EAE8
:10EB200091EE60E00F94C2F1E1E0F0E01093570045
:10EB30001491812F0F940DF20F94DCF107CF8BE825
:10EB400092EE62E00F94F5F18BE492EE60E00F94A8
:10EB5000F5F10F94DCF100E010E019C0C8016F2D51
:10EB60000F947FFEFF2031F489E492EE60E00F9471
:10EB7000C2F10BC0F092C6008091C00086FFFCCFAE
:10EB80008091C00080648093C0000F5F1F4FC80158
:10EB900081519F41A0E0B0E0ABBFFC01F790BAE229
:10EBA000FB1621F0E2E000301E07C1F60F94DCF105
:10EBB0000F94DCF187E592EE60E00F94F5F10F948D
:10EBC000DCF1CC24DD2400E010E01EC0C8010F946D
:10EBD00077FEF82E882331F489E492EE60E00F94FA
:10EBE000C2F10BC08093C6008091C00086FFFCCFAD
:10EBF0008091C00080648093C000FE1419F00894D6
:10EC0000C11CD11C0F5F1F4FC80181519F41A0E063
:10EC1000B0E0ABBFFC01E790FAE2EF1621F022E092
:10EC20000030120799F60F94DCF10F94DCF182E6C4
:10EC300092EE60E00F94C2F1C60161E070E00F94C3
:10EC400034F20F94DCF10F94DCF110920202109276
:10EC50000302109204021092050278CE89E992EE26
:10EC600062E00F94F5F1279A2F9A16C02F9880E052
:10EC700090E0E0EDF7E03197F1F7019684369105E9
:10EC8000C1F72F9A80E090E0E0EDF7E03197F1F7DF
:10EC9000019684369105C1F78091C00087FFE6CFC9
:10ECA0008091C00087FFFCCF64C485EA92EE62E0E9
:10ECB0000F94F5F140910202509103026091040219
:10ECC0007091050281E020E10F9491F2809102029F
:10ECD00090910302A0910402B091050280509F4FD1
:10ECE000AF4FBF4F8093020290930302A0930402A0
:10ECF000B093050280509041A040B04008F426CE69
:10ED0000A4CF83EB92EE62E00F94F5F140910602FE
:10ED100050910702609108027091090280E020E1A1
:10ED20000F9491F28091060290910702A09108023F
:10ED3000B091090280509F4FAF4FBF4F80930602A2
:10ED400090930702A0930802B0930902FFCD80ECD4
:10ED500092EE62E00F94F5F183E792EE60E00F949B
:10ED6000F5F18FE792EE60E00F94F5F18BE892EE0B
:10ED700060E00F94F5F189E992EE60E00F94F5F10F
:10ED800085EA92EE60E00F94F5F183EB92EE60E09D
:10ED90000F94F5F180EC92EE60E00F94F5F187ECC2
:10EDA00092EE60E00F94F5F188ED92EE60E00F9442
:10EDB000F5F18FED92EE60E00F94F5F18AEE92EEB0
:10EDC00060E00F94F5F183E093EEBDCD87EC92EE19
:10EDD00062E00F94F5F181E40F947BF282E40F94EA
:10EDE0007BF283E40F947BF284E40F947BF285E45E
:10EDF0000F947BF286E40F947BF287E40F947BF20E
:10EE000088E40F947BF28AE40F947BF28BE40F94F6
:10EE10007BF28CE40F947BF299CD88ED92EE62E068
:10EE20000F94F5F1772473948824992409C48FED05
:10EE300092EE62E00F94F5F140910A0250910B02BC
:10EE400060910C0270910D0282E020E10F9491F22A
:10EE500080910A0290910B02A0910C02B0910D02D8
:10EE600080509F4FAF4FBF4F80930A0290930B0289
:10EE7000A0930C02B0930D0269CD8AEE92EE62E08F
:10EE80000F94F5F184EE90EE60E00F94F5F18FECC5
:10EE900091EE60E00F94F5F1662477244301CC5D98
:10EEA000DE4F19821882C452D140D401C301B695F5
:10EEB000A79597958795CA5DDE4F88839983AA8326
:10EEC000BB83C652D140CC5DDE4FA881B981C4520C
:10EED000D1401196CC5DDE4FB983A883C452D14096
:10EEE000CD0162E070E00F9434F2B0E2B093C6005E
:10EEF0008091C00086FFFCCF8091C0008064809329
:10EF0000C000EDE2E093C6008091C00086FFFCCF18
:10EF10008091C00080648093C000F0E2F093C6004E
:10EF20008091C00086FFFCCF8091C00080648093F8
:10EF3000C000CA5DDE4FE880F9800A811B81C6529D
:10EF4000D140BB27A12F902F8F2D0F940DF2CA5DBA
:10EF5000DE4F8881C652D1400F940DF2B0E2FB2EF5
:10EF6000F092C6008091C00086FFFCCF8091C00067
:10EF700080648093C0000DE30093C6008091C000C0
:10EF800086FFFCCF8091C00080648093C00010E2B7
:10EF90001093C6008091C00086FFFCCF8091C00016
:10EFA00080648093C0008BBEF3012791C65DDE4F65
:10EFB0002883CA52D140A22EBB24CC24DD2408943D
:10EFC000611C711C811C911C8BBEF3018791282E42
:10EFD0003324442455240894611C711C811C911C09
:10EFE0008BBEF3013791C55DDE4F3883CB52D140E4
:10EFF0000894611C711C811C911C8BBEF30147910C
:10F00000C45DDE4F4883CC52D140ADEFEA2EAFEF66
:10F01000FA2EAFEF0A2FAFEF1A2F6E0C7F1C801E57
:10F02000911E142D032DF22CEE24EA0CFB1C0C1D5A
:10F030001D1D0F940DF220E22093C6008091C000A8
:10F0400086FFFCCF8091C00080648093C000C65DC5
:10F05000DE4F8881CA52D1400F940DF230E23093D6
:10F06000C6008091C00086FFFCCF8091C000806404
:10F070008093C000C45DDE4F8881CC52D1400F9494
:10F080000DF240E24093C6008091C00086FFFCCFA5
:10F090008091C00080648093C000C55DDE4F888190
:10F0A000CB52D1400F940DF250E25093C6008091A4
:10F0B000C00086FFFCCF8091C00080648093C000B8
:10F0C0008FEFE8168FEFF80680E0080780E018075A
:10F0D00031F484E092EE60E00F94C2F1DFC0D80119
:10F0E000C7018070907CA070B0708050904CA040A0
:10F0F000B040D1F52FEF3FE340E050E0E222F322B1
:10F1000004231523CA5DDE4FA880B980CA80DB8046
:10F11000C652D140AE0CBF1CC01ED11EAA0CBB1CD7
:10F12000CC1CDD1C8EE092EE60E00F94C2F1BB2798
:10F13000A12F902F8F2D0F940DF28E2D0F940DF285
:10F1400030E23093C6008091C00086FFFCCF8091F2
:10F15000C00080648093C0004EE34093C60080915D
:10F16000C00086FFFCCF87C08EE09EEFA0E0B0E03D
:10F17000E822F9220A231B239CE0E91694E9F90608
:10F1800090E0090790E0190709F088C0C45DDE4FE0
:10F19000A881CC52D140EA2EFF2400E010E0102FCD
:10F1A0000F2DFE2CEE24C55DDE4FB881CB52D14031
:10F1B000EB0EF11C011D111DD601C501817090706F
:10F1C000A070B070DC0199278827E80EF91E0A1F8D
:10F1D0001B1F20EF30E040E050E0A222B322C42207
:10F1E000D52241E1AA0CBB1CCC1CDD1C4A95D1F7F1
:10F1F000EA0CFB1C0C1D1D1D81E090E0A0E0B0E0BE
:10F20000282239224A225B2235E1220C331C441C7D
:10F21000551C3A95D1F7E20CF31C041D151D57013E
:10F220006801AA0CBB1CCC1CDD1C85E192EE60E0E1
:10F230000F94C2F1C801AA27BB270F940DF2BB2778
:10F24000A12F902F8F2D0F940DF28E2D0F940DF274
:10F2500090E29093C6008091C00086FFFCCF809121
:10F26000C00080648093C000AEE3A093C60080918C
:10F27000C00086FFFCCF8091C00080648093C000F6
:10F28000C601AA27BB270F940DF2BB27AD2D9C2DDD
:10F290008B2D0F940DF28A2D0F940DF20F94DCF14B
:10F2A000CC5DDE4FE881F981C452D140F99709F471
:10F2B0004DCBF4E0EF2EF12C012D112D6E0C7F1CA7
:10F2C000801E911EF2CD83E093EE62E00F94F5F183
:10F2D0008AE192EE60E00F94C2F18091C00087FF56
:10F2E000FCCF1091C6001F751093C6008091C0001E
:10F2F00086FFFCCF8091C00080648093C0000F9493
:10F30000DCF1812F81548A3108F036C1163409F4BA
:10F3100095C0173490F4133409F44EC0143430F40B
:10F320001134F1F0123409F01DC130C0143409F465
:10F3300059C0153409F016C16BC01A3409F4C4C0A1
:10F340001B3438F4173409F48FC0183409F00AC19B
:10F35000A1C01B3409F4D2C01C3409F003C1E8C0B9
:10F360008FEF81B90DC082B1809582B980E090E0C5
:10F37000E0EDF7E03197F1F70196883C9105C1F790
:10F380008091C00087FFEFCF12B8EFC08FEF84B934
:10F390000DC085B1809585B980E090E0E0EDF7E0A3
:10F3A0003197F1F70196883C9105C1F78091C00033
:10F3B00087FFEFCF15B8D9C08FEF87B90DC088B1DF
:10F3C000809588B980E090E0E0EDF7E03197F1F7C3
:10F3D0000196883C9105C1F78091C00087FFEFCF6F
:10F3E00018B8C3C08FEF8AB90DC08BB180958BB9A7
:10F3F00080E090E0E0EDF7E03197F1F70196883C8E
:10F400009105C1F78091C00087FFEFCF1BB8ADC059
:10F410008FEF8DB90DC08EB180958EB980E090E0F0
:10F42000E0EDF7E03197F1F70196883C9105C1F7DF
:10F430008091C00087FFEFCF1EB897C08FEF80BBD1
:10F440000DC081B3809581BB80E090E0E0EDF7E0F6
:10F450003197F1F70196883C9105C1F78091C00082
:10F4600087FFEFCF11BA81C08FEF83BB0DC084B38C
:10F47000809584BB80E090E0E0EDF7E03197F1F714
:10F480000196883C9105C1F78091C00087FFEFCFBE
:10F4900014BA6BC08FEF809301010FC080910201FD
:10F4A00080958093020180E090E0E0EDF7E03197F5
:10F4B000F1F70196883C9105C1F78091C00087FF64
:10F4C000EDCF1092020151C08FEF809304010FC065
:10F4D0008091050180958093050180E090E0E0ED4A
:10F4E000F7E03197F1F70196883C9105C1F78091DB
:10F4F000C00087FFEDCF1092050137C08FEF8093DA
:10F5000007010FC08091080180958093080180E079
:10F5100090E0E0EDF7E03197F1F70196883C910536
:10F52000C1F78091C00087FFEDCF109208011DC088
:10F530008FEF80930A010FC080910B01809580931B
:10F540000B0180E090E0E0EDF7E03197F1F70196F4
:10F55000883C9105C1F78091C00087FFEDCF1092E4
:10F560000B0103C085E292EEEEC98091C00087FFD7
:10F57000FCCF8091C600EAC988E392EEE4C98CE131
:10F5800091EEE1C988249924933011F1943028F444
:10F59000913089F09230B8F408C0953061F195301F
:10F5A000F0F0963009F048C043C02B3109F042C951
:10F5B00091E06BE13FC96227C15DDE4F2883CF52E6
:10F5C000D14092E037C9B22FA0E0622793E032C960
:10F5D000822F90E0A82BB92B622794E02BC92E3004
:10F5E00009F039C3622795E0C05DDE4F19821882A9
:10F5F000C053D1401FC9E1E0F0E0EC0FFD1FC05D3A
:10F60000DE4F08811981C053D140E00FF11F2083E4
:10F610000F5F1F4FC05DDE4F19830883C053D14079
:10F6200062270A171B0709F005C9D80196E002C92D
:10F63000261709F010C303C0973009F0FBC87724E0
:10F640009981933109F412C19431C8F4963009F4C8
:10F65000D8C0973050F4923009F406C1933009F4C1
:10F660006DC0913009F059C253C0913109F477C08F
:10F67000923108F0BBC0903109F04FC2F5C098310B
:10F6800009F487C0993150F4953109F4EFC09531F0
:10F6900008F4C6C1963109F040C2C2C19A3109F4DA
:10F6A0006CC09A3108F491C09B3109F45BC09D3164
:10F6B00009F033C29D81903359F48F81882311F46E
:10F6C0009EE11CC0813011F091E018C098E916C08D
:10F6D000892F807591F0903539F4E0E0F0E089E011
:10F6E0008093570094910AC0983539F4E3E0F0E034
:10F6F00089E080935700949101C090E01A821B82A8
:10F700008D818C831D829E831F8227E030E009C299
:10F710001A8288E08B8381E48C8386E58D8382E581
:10F720008E8389E48F8383E5888780E589878FE5E9
:10F730008A8782E38B872BE030E0F3C18A818139AD
:10F7400041F0823941F0803911F48FE005C080E04A
:10F7500003C082E001C08AE01A828B8344C0772410
:10F76000739482C08D81882311F48EE12CC0813086
:10F7700011F081E028C088E926C01A82E1E0F0E0BB
:10F7800089E08093570084918B831C8224E030E0D1
:10F79000C8C18B81803589F48C81883039F4E2E0EE
:10F7A000F0E089E08093570084910DC0E0E0F0E044
:10F7B00089E080935700849106C0E3E0F0E089E09F
:10F7C0008093570084911A82DFCF8D81836C99E0FA
:10F7D000E1E0F0E0082E90935700E89507B600FCB2
:10F7E000FDCF1A821B8223E030E09BC180EC8A832C
:10F7F000CE5CDE4F188219821A821B82C253D1401E
:10F800008EC18A8190E0A0E0B0E0582F44273327D2
:10F8100022278B8190E0A0E0B0E0DC0199278827C7
:10F82000282B392B4A2B5B2B8D8190E0A0E0B0E098
:10F83000282B392B4A2B5B2B8C8190E0A0E0B0E089
:10F84000BA2FA92F982F8827282B392B4A2B5B2BCF
:10F85000220F331F441F551FC05EDE4F288339839C
:10F860004A835B83C052D1401A8259C13A81C95C34
:10F87000DE4F3883C753D140CA5CDE4F1882C6536F
:10F88000D1408B81C82EDD24CA5CDE4F488159816E
:10F89000C653D140C42AD52A933109F082C0CE5C28
:10F8A000DE4F88819981AA81BB81C253D1408050AB
:10F8B000904CA340B04030F583E0CE5CDE4FE88052
:10F8C000F9800A811B81C253D140F70100935B008C
:10F8D00080935700E89507B600FCFDCFCE5CDE4F65
:10F8E000088119812A813B81C253D14000501F4FAA
:10F8F0002F4F3F4FCE5CDE4F088319832A833B8313
:10F90000C253D140C05EDE4F488159816A817B81FC
:10F91000C052D140DE011B9631E08C9111962C91A2
:10F9200011971296C75CDE4F2883C953D140C85C3B
:10F93000DE4F1882C853D14090E0C85CDE4FE881AA
:10F94000F981C853D1408E2B9F2B0C01FA01609393
:10F950005B0030935700E89511244E5F5F4F6F4F67
:10F960007F4F0EEFE02E0FEFF02ECE0CDF1CC114F8
:10F97000D10499F685E0C05EDE4F088119812A81A5
:10F980003B81C052D140F80120935B008093570027
:10F99000E89507B600FCFDCF81E180935700E8951C
:10F9A00035C0C05EDE4F88819981AA81BB81C0527B
:10F9B000D140B695A795979587957C018601ABE0D8
:10F9C000AA2EB12CAC0EBD1E0BC0D5016D915D01F0
:10F9D000C7010F947FFE0894E11CF11C01501040F8
:10F9E0000115110591F7A60160E070E0440F551F65
:10F9F000661F771FC05EDE4FE880F9800A811B8199
:10FA0000C052D1404E0D5F1D601F711F1A82C05E33
:10FA1000DE4F488359836A837B83C052D1407FC0C5
:10FA2000FA80C55CDE4FF882CB53D140C65CDE4F16
:10FA30001882CA53D1408B81C82EDD24C65CDE4FAC
:10FA400008811981CA53D140C02AD12A1A828981DA
:10FA5000BE016D5F7F4F843121F59601C05EDE4FA0
:10FA6000E880F9800A811B81C052D1400BBFF701A9
:10FA700087919691DB018C9311969C936E5F7F4FDB
:10FA8000D801C7010296A11DB11DC05EDE4F88835B
:10FA90009983AA83BB83C052D14022503040F1F6F3
:10FAA00036C0C05EDE4F288139814A815B81C052F9
:10FAB000D1400894C108D108760100E010E0089414
:10FAC000C11CD11C0894E11CF11C011D111DE20E8A
:10FAD000F31E041F151F21BDBB27A52F942F832FB5
:10FAE00082BD2F5F3F4F4F4F5F4FF89A80B5DB01CC
:10FAF0008D93BD012E153F054007510761F7C05E8C
:10FB0000DE4F288339834A835B83C052D1409601FC
:10FB10002D5F3F4FFB01108204C080EC8A8322E0FE
:10FB200030E08BE18093C6008091C00086FFFCCF5F
:10FB30008091C00080648093C000C15DDE4FF88179
:10FB4000CF52D140F093C6008091C00086FFFCCF19
:10FB50008091C00080648093C000432F3093C60022
:10FB60008091C00086FFFCCF8091C00080648093AC
:10FB7000C000922F2093C6008091C00086FFFCCF6A
:10FB80008091C00080648093C0008EE08093C600A6
:10FB90008091C00086FFFCCF8091C000806480937C
:10FBA000C00065E1C15DDE4FE880CF52D1406E25D7
:10FBB00069276427FE01319610C090819093C6009A
:10FBC0008091C00086FFFCCF31968091C000806498
:10FBD0008093C0006927215030402115310569F715
:10FBE0006093C6008091C00086FFFCCF8091C0006A
:10FBF00080648093C00085B1805885B9772081F4F6
:10FC0000C15DDE4F0881CF52D1400F5FC15DDE4F35
:10FC10000883CF52D14090E0A0E0B0E00D941AF4F8
:10FC200027982F9880E090E020ED37E0F901319798
:10FC3000F1F7019684369105C9F700008091C00064
:10FC40008D7F8093C00081E180935700E895EE2777
:10FC5000FF270994FFCF90E00D941AF497FB092E2B
:10FC600007260AD077FD04D02ED006D000201AF443
:10FC7000709561957F4F0895F6F7909581959F4F08
:10FC80000895A1E21A2EAA1BBB1BFD010DC0AA1FDD
:10FC9000BB1FEE1FFF1FA217B307E407F50720F0F5
:10FCA000A21BB30BE40BF50B661F771F881F991F70
:10FCB0001A9469F760957095809590959B01AC01B9
:10FCC000BD01CF010895AA1BBB1B51E107C0AA1FAC
:10FCD000BB1FA617B70710F0A61BB70B881F991FED
:10FCE0005A95A9F780959095BC01CD010895F99991
:10FCF000FECF92BD81BDF89A992780B50895262F31
:10FD0000F999FECF1FBA92BD81BD20BD0FB6F89400
:0EFD1000FA9AF99A0FBE01960895F894FFCF63
:00000001FF
