:100000000C942A010C945B010C945B010C945B0131
:100010000C945B010C945B010C945B010C945B01F0
:100020000C945B010C945B010C945B010C945B01E0
:100030000C945B010C945B010C945B010C945B01D0
:100040000C945B010C945B010C945B010C945B01C0
:100050000C945B010C945B010C945B010C94DD0827
:100060000C945B010C9451090C9427090C945B01CE
:100070000C945B010C945B010C945B010C945B0190
:100080000C945B010C945B010C945B010C945B0180
:100090000C945B010C945B010C945B010C945B0170
:1000A0000C945B010C945B010C945B010C945B0160
:1000B0000C945B010C945B010C945B010C945B0150
:1000C0000C945B010C945B010C945B010C945B0140
:1000D0000C945B010C945B010C945B010C945B0130
:1000E0000C945B010C9441020C9450020C94AF01EF
:1000F0000C94A8010C94C3010C94CD010C94D5016F
:100100000C94B2020C94C7010C94AC010C94EA025A
:100110000C94B5010C94DB010C940B020C94BF0100
:100120000C948E010C94DF050C9489010C94370318
:100130000C94DF010C94D1010C94390B0C94B9018F
:100140000C94A0010C94A4020C94A40100002100C2
:10015000240027002A002D00300033000101000098
:10016000040107010A0100002200250028002B00DD
:100170002E003100340002010000050108010B01CE
:1001800005050505070508080808020202020A0A13
:100190000808040404040101010101010101030331
:1001A000030303030303040707070C0C0C0C0C0CDC
:1001B0000C0C0202020206060606060606060B0BD9
:1001C0000B0B0B0B0B0B010210202008081020401A
:1001D000102040800201020108040201010204080B
:1001E0001020408080402010080402018004020199
:1001F00080402010080402010804020101020408E2
:1002000010204080010204081020408000000A0BEA
:1002100002090C0D0E080703040100000000000095
:1002200000000000000000000000000000000000CE
:10023000000000000000000012111000000000008B
:1002400000000000000000000000000000000000AE
:100250000000390B11241FBECFEFD1E2DEBFCDBFAE
:1002600000E00CBF12E0A0E0B2E0E4E7FEE100E055
:100270000BBF02C007900D92AA3BB107D9F723E04C
:10028000AAEBB2E001C01D92AA38B207E1F711E073
:10029000CAE2D1E000E006C021970109802FFE01EB
:1002A0000E940F0DC932D10780E00807A9F70E940C
:1002B00087090C94380F0C940000382FE1E4F2E029
:1002C0008491EBEFF1E02491E5EBF1E09491992337
:1002D00009F435C0882311F181508231F8F4E82FF8
:1002E000F0E08827E958FE4F8F4F0C940F0DA801BE
:1002F000AC018901A001A4018E01AF01B501B901D2
:10030000BF01C301C701CD01D1018E01D501DB01C0
:10031000DF01809180008F7780938000E92FF0E0EB
:10032000EE0FFF1FEA59FE4FA591B4918FB7F894D5
:10033000EC91311148C020952E232C938FBF089546
:10034000809180008F7DE8CF80918000877FE4CF0F
:1003500084B58F7784BDE2CF84B58F7DFBCF80914C
:10036000B0008F778093B000D9CF8091B0008F7D9F
:10037000F9CF809190008F7780939000CFCF8091BC
:1003800090008F7DF9CF80919000877FF5CF80918D
:10039000A0008F778093A000C1CF8091A0008F7DB7
:1003A000F9CF8091A000877FF5CF809120018F77D2
:1003B00080932001B3CF809120018F7DF9CF809170
:1003C0002001877FF5CF2E2BB8CF3FB7F8948091CF
:1003D000E1029091E202A091E302B091E40226B51D
:1003E000A89B05C02F3F19F00196A11DB11D3FBF6D
:1003F000BA2FA92F982F8827BC01CD01620F711D3C
:10040000811D911D42E0660F771F881F991F4A9535
:10041000D1F708950895AF92BF92CF92DF92EF92F5
:10042000FF920F931F93CF93DF936C017B018B019E
:10043000040F151FEB015E01AE18BF08C017D107EE
:1004400059F06991D601ED91FC910190F081E02D78
:10045000C6011995892B79F7C501DF91CF911F91BD
:100460000F91FF90EF90DF90CF90BF90AF900895E5
:10047000FC01448155816081718189EE92E00C9488
:100480000B02FC01538D448D252F30E0842F90E02A
:10049000821B930B541710F0CF960895019708957F
:1004A000FC01918D828D981761F0A28DAE0FBF2F48
:1004B000B11D5D968C91928D9F5F9F73928F90E09E
:1004C00008958FEF9FEF08952FB7F8948091E5027C
:1004D0009091E602A091E702B091E8022FBF8093CD
:1004E000F1029093F202A093F302B093F40289EE2A
:1004F00092E00E94500297FF26C02FB7F894809197
:10050000E5029091E602A091E702B091E8022FBFC8
:100510004091F1025091F2026091F3027091F40265
:10052000841B950BA60BB70B4091ED025091EE0288
:100530006091EF027091F00284179507A607B70744
:10054000B0F28FEF9FEF0895FC01918D828D981787
:1005500031F0828DE80FF11D858D90E008958FEFC9
:100560009FEF0895FC01918D228D892F90E0805C92
:100570009F4F821B91098F739927089589EE92E00E
:100580000E94B20221E0892B09F420E0822F089515
:10059000FC01A48DA80FB92FB11DA35ABF4F2C91F8
:1005A000848D90E001968F739927848FA689B789EF
:1005B0002C93A089B1898C91837080648C93938DE6
:1005C000848D981306C00288F389E02D80818F7D89
:1005D00080830895EF92FF920F931F93CF93DF9341
:1005E000EC0181E0888F9B8D8C8D98131AC0E8896F
:1005F000F989808185FF15C09FB7F894EE89FF893E
:100600006083E889F98980818370806480839FBFDB
:1006100081E090E0DF91CF911F910F91FF90EF90DB
:100620000895F62E0B8D10E00F5F1F4F0F731127EB
:10063000E02E8C8D8E110CC00FB607FCFACFE88926
:10064000F989808185FFF5CFCE010E94C802F1CFE4
:10065000EB8DEC0FFD2FF11DE35AFF4FF0829FB79A
:10066000F8940B8FEA89FB8980818062CFCFCF938A
:10067000DF93EC01888D8823B9F0AA89BB89E889CA
:10068000F9898C9185FD03C0808186FD0DC00FB670
:1006900007FCF7CF8C9185FFF2CF808185FFEDCFEE
:1006A000CE010E94C802E9CFDF91CF91089580E08A
:1006B00090E0892B29F00E94BE0281110E94000067
:1006C00080E090E0892B49F080E090E0892B29F0D0
:1006D0000E94000081110E94000080E090E0892BC0
:1006E00049F080E090E0892B29F00E940000811100
:1006F0000E94000080E090E0892B49F080E090E0CB
:10070000892B29F00E94000081110C9400000895AB
:10071000DF92EF92FF920F931F93CF93DF93DC0151
:1007200014962D913C916217730750F08FEF9FEF55
:10073000DF91CF911F910F91FF90EF90DF9008957F
:100740008C01EB012196DC01ED91FC911197EC0FEE
:10075000FD1FD0801082ED90FC906EE270E0C7012A
:100760000E942D0FCE0DDF1DD8820097F9F2F801FF
:1007700020813181821B930BDBCFFC010190002093
:10078000E9F73197AF01481B590BBC0189EE92E0A4
:100790000C940B020F931F93CF93DF938C01EB010B
:1007A000FC01808191810097E1F068817981611578
:1007B0007105A9F0428153812C813D814217530775
:1007C00070F00E94260F8C819D81F80195838483AF
:1007D0001D821C82DF91CF911F910F9108950E947D
:1007E000B30D88819981F801918380838A819B81EF
:1007F000938382838C819D8195838483198218825F
:100800001B821A82E5CFCF93DF93EC018881998117
:10081000009711F00E94B30D198218821D821C826C
:100820001B821A82DF91CF910895FC018081918112
:10083000009711F00C94B30D08950F931F93CF936D
:10084000DF93EC0188819981009759F02A813B81DF
:100850002617370730F081E0DF91CF911F910F917C
:1008600008958B016F5F7F4F0E943C0E009759F0F7
:10087000998388831B830A832C813D81232B59F71D
:10088000FC011082E8CF80E0E7CFEF92FF920F9358
:100890001F93CF93DF936115710541F480E0DF91E1
:1008A000CF911F910F91FF90EF9008954115510541
:1008B000B1F07B01EC010C811D81040F151FB80103
:1008C0000E941D04882351F3288139818C819D81E8
:1008D000B701820F931F0E94260F1D830C8381E0B6
:1008E000DECFCF93DF93EC01FB0101900020E9F70D
:1008F0003197AF01461B570B0E944504811103C07D
:10090000CE010E940304CE01DF91CF910895EF92B2
:10091000FF920F931F93CF93DF93EC017B018A012A
:10092000BA010E941D0481110BC0CE010E94030474
:10093000CE01DF91CF911F910F91FF90EF9008951D
:100940001D830C83B701888199810E94260FF0CF07
:10095000CF93DF93EC01FB018617970749F0608185
:1009600071816115710541F0448155810E948704B0
:10097000CE01DF91CF9108950E940304F9CFFC01CD
:10098000118210821382128215821482FB0101905F
:100990000020E9F73197AF01461B570B0C948704F1
:1009A0000F931F93CF93DF931F921F92CDB7DEB7A4
:1009B0008C0168EB72E00E94BF040E94640297FD04
:1009C0000EC08A30910559F089831A8241E050E0C7
:1009D000BE016F5F7F4FC8010E944504EECFC80182
:1009E0000F900F90DF91CF911F910F910895AF92CB
:1009F000BF92CF92DF92EF92FF920F931F93CF930C
:100A0000DF937C016B015A0189012417350720F41B
:100A10008B2D5901042F182F68EB72E0C7010E943B
:100A2000BF04D6011496CD91DC91AC16BD0620F51D
:100A30000C171D0708F4E801D601ED91FC91119700
:100A4000EC0FFD1F108110826D917C916A0D7B1D52
:100A500061157105E9F0FB0101900020E9F731977C
:100A6000AF01461B570BC7010E948704F601808126
:100A70009181C80FD91F1883C701DF91CF911F91B2
:100A80000F91FF90EF90DF90CF90BF90AF900895BF
:100A9000C7010E940304EACF8F929F92AF92BF9248
:100AA000CF92DF92EF92FF920F931F93CF93DF933A
:100AB000CDB7DEB764970FB6F894DEBF0FBECDBFDB
:100AC0006C017B0149015A01FB0164817581615010
:100AD0007109C7010E948803F70124813581AC01A7
:100AE0004F5F5F4FB7018E010F5F1F4FC8010E941C
:100AF000F704B801C7010E94CA03C8010E94150487
:100B000062E272E0CE010F960E94BF04F7014481B9
:100B1000558160817181CE010F960E94450481113B
:100B200004C0CE010F960E94030464E272E0CE017D
:100B30000F960E94710462E272E00E9471047C01CF
:100B40002AE0A801C501B4010E943C0CF801019003
:100B50000020E9F73197AF01401B510BB801C701E5
:100B60000E944504811103C0C7010E94030462E290
:100B700072E0C7010E947104F60111821082138293
:100B8000128215821482BC01C6010E94A804CE0103
:100B90000F960E941504C60164960FB6F894DEBF46
:100BA0000FBECDBFDF91CF911F910F91FF90EF90BE
:100BB000DF90CF90BF90AF909F908F9008952F922D
:100BC0003F924F925F926F927F928F929F92AF92DD
:100BD000BF92CF92DF92EF92FF920F931F93CF932A
:100BE000DF93CDB7DEB7C05BD1090FB6F894DEBF97
:100BF0000FBECDBFC355DF4F99838883CD5AD040F8
:100C000086EC90E08C0F9D1FCF57DF4F9983888330
:100C1000C158D040CE0188539F4FCD57DF4F9983A5
:100C20008883C358D0400296CB57DF4F998388837F
:100C3000C558D0400296C957DF4F99838883C7585B
:100C4000D0400296C757DF4F99838883C958D04058
:100C50000296C557DF4F99838883CB58D0400296C0
:100C6000C357DF4F99838883CD58D0400296C15730
:100C7000DF4F99838883CF58D0400296CF56DF4FFD
:100C800099838883C159D0400296CD56DF4F99830E
:100C90008883C359D0400296CB56DF4F998388830F
:100CA000C559D0400296C956DF4F99838883C759EA
:100CB000D0400296C756DF4F99838883C959D040E8
:100CC0000296C556DF4F99838883CB59D040029650
:100CD000C356DF4F99838883CD59D0400296C156C1
:100CE000DF4F99838883CF59D04067E272E0DE01FD
:100CF00011961D01CD010E94BF046EE272E0CE018B
:100D000007960E94BF0466E372E0CE010D960E9432
:100D1000BF0461E472E0CE0143960E94BF0468E420
:100D200072E0CE0149960E94BF0465E572E0CE01F3
:100D30004F960E94BF046AE572E0CE0185960E943C
:100D4000BF046FE572E0CE018B960E94BF046AE695
:100D500072E0CE01C1960E94BF0465E772E0CE0149
:100D6000C7960E94BF046BE772E0CE01CD960E9449
:100D7000BF0460E872E0CE018D5B9F4F0E94BF040C
:100D800066E872E0CE01875B9F4F0E94BF046DE86A
:100D900072E0CE01815B9F4F0E94BF0463E972E065
:100DA000CE018B5A9F4F0E94BF0469E972E0CE01C9
:100DB000855A9F4F0E94BF048FE992E00E94BD03B5
:100DC0008E010F571F4F6101F801B096C155DF4FDB
:100DD000F983E883CF5AD040412C512C32017E0157
:100DE000F1E6EF0EF11CC155DF4F88819981CF5A92
:100DF000D0408017910709F4D3C0D801ED91FD913F
:100E00008D0180809180C955DF4F19821882C75AA1
:100E1000D040C755DF4F19821882C95AD040C555F6
:100E2000DF4F19821882CB5AD040B601CE018955C6
:100E30009F4F0E94A804C555DF4F68817981CB5A26
:100E4000D04061507109CE0189559F4F0E9488039F
:100E5000C555DF4F28813981CB5AD040AC014F5F57
:100E60005F4FBE0169557F4FC7010E94F704B7016C
:100E7000CE0189559F4F0E94CA03C7010E941504E5
:100E800062E272E0CE018F559F4F0E94BF04C555AC
:100E9000DF4F48815981CB5AD040C955DF4F688117
:100EA0007981C75AD040CE018F559F4F0E9445048B
:100EB000811105C0CE018F559F4F0E94030464E24B
:100EC00072E0CE018F559F4F0E94710462E272E082
:100ED0000E9471045C014AE0B701C4010E94310C18
:100EE000F70101900020E9F73197AF014E195F0932
:100EF000B701C5010E944504811103C0C5010E94CC
:100F0000030462E272E0C5010E947104F7011182DC
:100F100010821382128215821482BC01C7010E94C2
:100F2000A804CE018F559F4F0E941504CF55DF4F67
:100F300019821882C15AD040CD55DF4F19821882CC
:100F4000C35AD040CB55DF4F19821882C55AD040C2
:100F5000B701CE018F559F4F0E94A80461EA72E04D
:100F6000CE018F559F4F0E9471040E943802CE011E
:100F70008F559F4F0E941504C7010E941504CE0192
:100F800089559F4F0E941504C401990CAA0BBB0BF5
:100F9000480E591E6A1E7B1EF6E0CF0ED11C23CFD1
:100FA000C090BA02D090BB02E090BC02F090BD02AB
:100FB00064EA72E0CE018F599F4F0E94BF04A701DF
:100FC0009601BE016F597F4FCE018F559F4F0E94F2
:100FD0004C05CE018F559F4F0E943802CE018F5590
:100FE0009F4F0E941504CE018F599F4F0E941504F8
:100FF00089EA92E00E94BD036BEA72E0CE018F594C
:101000009F4F0E94BF04A3019201BE016F597F4F01
:10101000CE018F559F4F0E944C05CE018F559F4F9B
:101020000E943802CE018F559F4F0E941504CE01B9
:101030008F599F4F0E94150484EB92E00E94BD03DC
:1010400086EB92E00E94BD0380E2FE01EA53FF4F6F
:10105000DE01AF59BF4F01900D928A95E1F7CE01A5
:1010600089559F4F0E94D00422E030E050E040E0DC
:10107000BE0169557F4FCE018F559F4F0E94F704E7
:10108000CF55DF4F88819981C15AD040C12CD12CD6
:101090007601009719F00E940A0C6B01CE018F5562
:1010A0009F4F0E94150487E0C816D104A9F195E16D
:1010B000C916D10409F456C081E0A6E0CA16D104CD
:1010C00009F44DC0CE0189559F4F0E9415048E0131
:1010D0000F591F4F06501109C8010E941504201610
:1010E0003106C1F7C055DF4F0FB6F894DEBF0FBE13
:1010F000CDBFDF91CF911F910F91FF90EF90DF90C7
:10110000CF90BF90AF909F908F907F906F905F90A7
:101110004F903F902F900895CE018F559F4F0E9482
:10112000D004BE016F557F4FCE0189559F4F0E945D
:10113000CA03CE018F559F4F0E941504C955DF4F3A
:1011400088819981C75AD0400E940A0C6093BA02E4
:101150007093BB028093BC029093BD0280E00E941A
:101160005D01B0CFC355DF4FE881F981CD5AD04042
:10117000208131818DB79EB780970FB6F8949EBFBE
:101180000FBE8DBFADB7BEB7119680E2FE01EF591D
:10119000FF4F01900D928A95E1F7D901ED91FC91F5
:1011A000C355DF4F88819981CD5AD04019950FB62C
:1011B000F894DEBF0FBECDBF85CF1F920F920FB642
:1011C0000F9211242F933F938F939F93AF93BF93CD
:1011D0008091E5029091E602A091E702B091E802C9
:1011E0003091E00223E0230F2D3758F50196A11D21
:1011F000B11D2093E0028093E5029093E602A09354
:10120000E702B093E8028091E1029091E202A0919E
:10121000E302B091E4020196A11DB11D8093E102A9
:101220009093E202A093E302B093E402BF91AF91E6
:101230009F918F913F912F910F900FBE0F901F9014
:10124000189526E8230F0296A11DB11DD2CF1F923B
:101250000F920FB60F9211240BB60F922F933F935C
:101260004F935F936F937F938F939F93AF93BF93AE
:10127000EF93FF9389EE92E00E94C802FF91EF91F5
:10128000BF91AF919F918F917F916F915F914F919E
:101290003F912F910F900BBE0F900FBE0F901F909C
:1012A00018951F920F920FB60F9211240BB60F9242
:1012B0002F938F939F93EF93FF93E091F902F09117
:1012C000FA028081E091FF02F091000382FD1DC0CF
:1012D0009081809102038F5F8F73209103038217A7
:1012E00041F0E0910203F0E0E751FD4F958F8093CC
:1012F0000203FF91EF919F918F912F910F900BBE61
:101300000F900FBE0F901F9018958081F2CF7894A8
:1013100084B5826084BD84B5816084BD85B58260FA
:1013200085BD85B5816085BD80916E0081608093AB
:101330006E00109281008091810082608093810014
:101340008091810081608093810080918000816024
:10135000809380008091B10084608093B10080917F
:10136000B00081608093B000809191008260809392
:101370009100809191008160809391008091900014
:101380008160809390008091A10082608093A10091
:101390008091A10081608093A1008091A000816074
:1013A0008093A0008091210182608093210180912F
:1013B00021018160809321018091200181608093CF
:1013C000200180917A00846080937A0080917A0075
:1013D000826080937A0080917A00816080937A00A5
:1013E00080917A00806880937A001092C100E09129
:1013F000F902F091FA0282E08083E091F902F09123
:10140000FA021082E091F502F091F6021082E0916A
:10141000F702F091F80280E1808310920103E091DD
:10142000FD02F091FE0286E08083E091FB02F091E4
:10143000FC02808180618083E091FB02F091FC02DC
:10144000808188608083E091FB02F091FC028081C2
:1014500080688083E091FB02F091FC0280818F7DA7
:10146000808382E090E00E94170D20E232E0FC01D0
:10147000318320839093DF028093DE0288E893E13A
:101480009093BF028093BE020E94B20B44EFC42E21
:10149000DD24D394E12CF12CA70196010E94AC0C21
:1014A0007093C1026093C0020E94B20BA701960123
:1014B0000E94AC0C7093C3026093C2020E94B20BF4
:1014C000A70196010E94AC0C7093C5026093C40200
:1014D0000E94B20BA70196010E94AC0C7093C70248
:1014E0006093C6020E94B20BA70196010E94AC0C49
:1014F0007093C9026093C8020E94B20BA7019601C3
:101500000E94AC0C7093CB026093CA020E94B20B93
:10151000A70196010E94AC0C7093CD026093CC029F
:101520000E94B20BA70196010E94AC0C7093CF02EF
:101530006093CE020E94B20BA70196010E94AC0CF0
:101540007093D1026093D0020E94B20BA701960162
:101550000E94AC0C7093D3026093D2020E94B20B33
:10156000A70196010E94AC0C7093D5026093D4023F
:101570000E94B20BA70196010E94AC0C7093D70297
:101580006093D6021092D9021092D8021092DB0218
:101590001092DA021092DD021092DC02EBEFF1E021
:1015A0002491E5EBF1E08491882399F090E0880F95
:1015B000991FFC01E45BFE4FA591B491FC01EA592F
:1015C000FE4F859194918FB7F894EC91E22BEC93B8
:1015D0008FBF80E00E945D018091DE029091DF026A
:1015E000FC01C081D1812DB73EB7205231090FB621
:1015F000F8943EBF0FBE2DBFADB7BEB7119620E227
:10160000EEEBF2E001900D922A95E1F7E881F98185
:1016100019958DB79EB780960FB6F8949EBF0FBEF2
:101620008DBF0E94E5014B015C0188EEC82E83E06E
:10163000D82EE12CF12C0E94E501681979098A095C
:101640009B09683E734081059105A8F391E0C91A92
:10165000D108E108F108E8EE8E0EE3E09E1EA11C21
:10166000B11CC114D104E104F10429F70E9457030D
:10167000B3CFE9EEF2E01382128288EE93E0A0E0AD
:10168000B0E084839583A683B7838EE092E0918354
:10169000808385EC90E09587848784EC90E0978741
:1016A000868780EC90E0918B808B81EC90E0938B2F
:1016B000828B82EC90E0958B848B86EC90E0978B0C
:1016C000868B118E128E138E148E08958F929F9298
:1016D000AF92BF92CF92DF92EF92FF92CF93DF93C0
:1016E000EC01688179818A819B8161157105810591
:1016F000910521F464E279ED8BE597E02DE133EF7C
:1017000041E050E00E94AC0C49015A019B01AC0140
:10171000A7EAB1E40E94CB0C6B017C01ACEEB4EF04
:10172000A50194010E94D90CC60ED71EE81EF91E11
:10173000F7FE06C081E0C81AD108E10880E8F80A7F
:10174000C882D982EA82FB82C701B6019F77DF9106
:10175000CF91FF90EF90DF90CF90BF90AF909F9090
:101760008F9008958F929F92AF92BF92CF92DF9207
:10177000EF92FF926091000270910102809102024B
:1017800090910302611571058105910521F464E2D0
:1017900079ED8BE597E02DE133EF41E050E00E94D9
:1017A000AC0C49015A019B01AC01A7EAB1E40E94CB
:1017B000CB0C6B017C01ACEEB4EFA50194010E944F
:1017C000D90CC60ED71EE81EF91EF7FE06C081E032
:1017D000C81AD108E10880E8F80AC0920002D09245
:1017E0000102E0920202F0920302C701B6019F7764
:1017F000FF90EF90DF90CF90BF90AF909F908F9031
:101800000895609300027093010280930202909306
:10181000030208951F93FC0199278827BC01E894CF
:1018200011911032E9F3193010F01E30C8F31B3259
:1018300051F01D3249F4689406C00E944B0C610FB0
:10184000711D811D911D119110531A30B0F33EF49A
:1018500090958095709561957F4F8F4F9F4F1F9109
:101860000895BB274A3031F4992322F4BDE29095C4
:1018700081959F4F0C94830CBB272A3051F49923F8
:1018800042F4BDE290958095709561957F4F8F4FA2
:101890009F4F0C94610C592F482F372F262F660F1E
:1018A000771F881F991F660F771F881F991F620F68
:1018B000731F841F951F660F771F881F991F089538
:1018C000BB27FA01A62F6217710581059105330B1D
:1018D00030FB66F0AA27660F771F881F991FAA1F83
:1018E000A21710F0A21B63953850A9F7A05DAA3388
:1018F00008F0A95DA19336F7B111B1931082CA0126
:101900000C949C0CBB27FB015527AA27880F991F15
:10191000AA1FA41710F0A41B83955051B9F7A05D1E
:10192000AA3308F0A95DA193009779F7B111B1939B
:101930001192CB010C949C0CDC01FC01672F71917E
:101940007723E1F7329704C07C916D9370836291A5
:10195000AE17BF07C8F30895052E97FB1EF4009439
:101960000E94C30C57FD07D00E94DE0C07FC03D079
:101970004EF40C94C30C50954095309521953F4FF3
:101980004F4F5F4F089590958095709561957F4F6B
:101990008F4F9F4F08950E94000DA59F900DB49FFB
:1019A000900DA49F800D911D11240895B7FF0C94F4
:1019B000CB0C0E94CB0C821B930B0895A1E21A2E34
:1019C000AA1BBB1BFD010DC0AA1FBB1FEE1FFF1FE3
:1019D000A217B307E407F50720F0A21BB30BE40B33
:1019E000F50B661F771F881F991F1A9469F760957A
:1019F0007095809590959B01AC01BD01CF01089534
:101A0000A29FB001B39FC001A39F700D811D11243F
:101A1000911DB29F700D811D1124911D0895EE0F2F
:101A2000FF1F881F8BBF0790F691E02D19940F932D
:101A30001F93CF93DF938230910510F482E090E002
:101A4000E0918803F091890330E020E0B0E0A0E06D
:101A5000309799F42115310509F44AC0281B390B38
:101A600024303105D8F58A819B816115710589F192
:101A7000FB0193838283FE0111C040815181028169
:101A8000138148175907E0F04817590799F4109740
:101A900061F012960C93129713961C933296CF0115
:101AA000DF91CF911F910F910895009388031093B8
:101AB0008903F4CF2115310551F04217530738F04F
:101AC000A901DB019A01BD01DF01F801C1CFEF01DE
:101AD000F9CF9093890380938803CDCFFE01E20F65
:101AE000F31F819391932250310939832883D7CFF3
:101AF0002091860330918703232B41F42091060225
:101B000030910702309387032093860320910402CB
:101B1000309105022115310541F42DB73EB74091B2
:101B2000080250910902241B350BE0918603F091C5
:101B30008703E217F307A0F42E1B3F0B2817390782
:101B400078F0AC014E5F5F4F2417350748F04E0F19
:101B50005F1F5093870340938603819391939FCF98
:101B6000F0E0E0E09CCFCF93DF930097E9F0FC0139
:101B7000329713821282A0918803B0918903ED01FC
:101B800030E020E01097A1F420813181820F931F73
:101B900020918603309187032817390709F061C027
:101BA000F0938703E0938603DF91CF910895EA01D4
:101BB000CE17DF07E8F54A815B819E01411551058B
:101BC000B1F7E901FB83EA8349915991C40FD51F0D
:101BD000EC17FD0761F4808191810296840F951FB7
:101BE000E90199838883828193819B838A83F0E0D2
:101BF000E0E012968D919C9113970097B9F52D9185
:101C00003C911197CD010296820F931F209186037C
:101C1000309187032817390739F6309751F510921C
:101C2000890310928803B0938703A0938603BCCFE7
:101C3000D383C28340815181840F951FC817D90770
:101C400061F44E5F5F4F88819981480F591F51831E
:101C500040838A819B81938382832115310509F01A
:101C6000B0CFF0938903E09388039ECFFD01DC01A0
:101C7000C0CF13821282D7CF4F925F926F927F9222
:101C80008F929F92AF92BF92CF92DF92EF92FF928C
:101C90000F931F93CF93DF938C01009799F4CB019F
:101CA000DF91CF911F910F91FF90EF90DF90CF9038
:101CB000BF90AF909F908F907F906F905F904F906C
:101CC0000C94170DFC01E60FF71F9C0122503109FF
:101CD000E217F30708F4AEC0D901CD91DC9111975A
:101CE000C617D70720F1C530D10578F0CE0104978B
:101CF0008617970750F0C61BD70B2297C193D19335
:101D00006D937C93CF010E94B30DC801DF91CF91F9
:101D10001F910F91FF90EF90DF90CF90BF90AF9009
:101D20009F908F907F906F905F904F9008955B0190
:101D3000AC1ABD0A4C018C0E9D1EA0918803B09177
:101D40008903512C412CF12CE12C109731F5809115
:101D50008603909187038815990509F05CC04616A3
:101D6000570608F058C08091040290910502009730
:101D700041F48DB79EB74091080250910902841B2F
:101D8000950BE817F90708F055C0F0938703E09327
:101D90008603F90171836083B8CF8D919C9111976F
:101DA00012966C90129713967C901397A815B9050C
:101DB00059F56C0142E0C40ED11CCA14DB0420F1B9
:101DC000AC014A195B09DA011296159780F062821C
:101DD000738251834083D9016D937C93E114F104A4
:101DE00071F0D7011396FC93EE9312978ECF229643
:101DF0008C0F9D1FF90191838083F301EFCFF09346
:101E00008903E093880381CF4816590608F42C0112
:101E10007D01D3019ACFCB010E94170D7C01009761
:101E200049F0AE01B8010E941D0FC8010E94B30D18
:101E300087016BCF10E000E068CFFB01DC0102C03E
:101E400001900D9241505040D8F70895FB01DC01FC
:101E500001900D920020E1F70895FC0181E090E0EF
:101E60000190061609F4CF010020D1F701970895DB
:041E7000F894FFCF14
:101E74000100000000008A03800000000000EA0264
:101E84000B0241023703B2025002A4020000000018
:101E9400DF052200223A00642E74656D7000642E02
:101EA4006C6967687400642E6C6F75646E65737317
:101EB40000642E77696E6400642E774469726563EA
:101EC40074696F6E00642E757600642E6F32006440
:101ED4002E68756D696469747900642E7072657317
:101EE4007375726500642E636F3200642E636F0035
:101EF400642E6E6F3200642E736D6F6700642E70F3
:101F0400683100642E70683200642E706833007B80
:101F1400002C200074696D65002C00636865636B98
:0A1F240073756D007D000D0A0000CA
:00000001FF
